:100000000C94E8010C9405020C9405020C94050272
:100010000C9405020C9405020C9405020C94050244
:100020000C9405020C9405020C94D5020C94F60273
:100030000C9405020C9405020C9405020C94050224
:100040000C9405020C9405020C9405020C94050214
:100050000C9405020C9405020C9405020C94050204
:100060000C9405020C9405020C9405020C940502F4
:100070000C9405020C9410020C9405020C940502D9
:100080000C9405020C9405020C9405020C940502D4
:100090000C9405020C9405020C9405020C940502C4
:1000A0000C9405020C9405020C940502000000005B
:1000B0000101010102020202030303030404040418
:1000C00005050505060606060707070708080809C7
:1000D0000909090A0A0A0A0B0B0B0C0C0C0C0D0D72
:1000E0000D0D0E0E0E0F0F0F0F101010111111111C
:1000F00012121213131313141414151515151616C2
:1001000016171717181818181919191A1A1A1B1B65
:100110001B1B1C1C1C1D1D1D1E1E1E1F1F1F1F2008
:1001200020202121212222222323232424242525A7
:10013000252626262727272828282929292A2A2A42
:100140002B2B2B2C2C2C2D2D2D2E2E2E2F2F2F30DC
:100150003031313132323233333334343435353671
:10016000363637373738383939393A3A3A3B3B3C03
:100170003C3C3D3D3D3E3E3F3F3F40404141414292
:10018000424343434444454545464647474748481C
:100190004949494A4A4B4B4C4C4C4D4D4E4E4F4FA2
:1001A0004F50505151525252535354545555555625
:1001B000565757585859595A5A5A5B5B5C5C5D5DA3
:1001C0005E5E5F5F6060616161626263636464651B
:1001D0006566666767686869696A6A6B6B6C6C6D8F
:1001E0006D6E6E6F6F7070717172737374747575FC
:1001F00076767777787879797A7B7B7C7C7D7D7E63
:100200007E7F8080818182828384848585868687C3
:10021000888889898A8B8B8C8C8D8E8E8F8F90911C
:1002200091929293949495969697979899999A9B70
:100230009B9C9D9D9E9F9FA0A1A1A2A3A3A4A5A5B9
:10024000A6A7A7A8A9A9AAABABACADAEAEAFB0B0FC
:10025000B1B2B3B3B4B5B5B6B7B8B8B9BABBBBBC35
:10026000BDBEBEBFC0C1C1C2C3C4C5C5C6C7C8C963
:10027000C9CACBCCCDCDCECFD0D1D2D2D3D4D5D686
:10028000D7D7D8D9DADBDCDDDDDEDFE0E1E2E3E49D
:10029000E4E5E6E7E8E9EAEBECEDEEEFF0F0F1F2A9
:1002A000F3F4F5F6F7F8F9FAFBFCFDFE7F000880A1
:1002B00080808000010000B8031200020000520399
:1002C000220021000064030900220000740344009E
:1002D0000300004E03040103090432031A02030958
:1002E00004E4024C4C034A006F0079007300740070
:1002F000690063006B00200049006E007400650017
:1003000072006600610063006500200066006F00F7
:1003100072002000660069007300630068006500D9
:10032000720074006500630068006E0069006B0075
:1003300000001A03540069006C006C0020004800A3
:10034000610072006200610075006D00000004032E
:1003500009040902220001010080320904000001A1
:10036000030000000921110100012244000705815A
:100370000340000A05010904A1011500250135000B
:100380004501750195080509190129088102050132
:100390002507463B017504950165140939814265BD
:1003A000009501810125FF45FF0930093109320916
:1003B00035750895048102C012011001000000404B
:1003C000401C390500010102000101C13600000096
:1003D00011241FBECFEFDAE0DEBFCDBF11E0A0E0F9
:1003E000B1E0EAECFAE002C005900D92A230B1074C
:1003F000D9F721E0A2E0B1E001C01D92A431B2071B
:10040000E1F70E9443040C9463050C9400001AB8B1
:100410001BB884B18F7084B985B18F7085B9089588
:100420001F920F920FB60F9211248F939F93EF9309
:10043000FF9380910D01843088F4E0910D0181E0FB
:100440008E0F80930D01F0E08091780090917900FB
:10045000EE0FFF1FEB5FFE4F9183808380910D01B4
:10046000843088F480917C0090910D018C7F892BE1
:1004700080937C0085E38A95F1F7000080917A00F3
:10048000806480937A00FF91EF919F918F910F90FC
:100490000FBE0F901F90189510920D0184E4809369
:1004A0007C00EAE7F0E08EE8808310927B00808198
:1004B000806480830895811522E0920728F08F31AF
:1004C000924038F08FE70895FC01E455FF4F849186
:1004D00008958FEF089581E08093D70080EA80939C
:1004E000D80082E189BD09B400FEFDCF80E9809388
:1004F000D8001092E000109204018CE08093E2009A
:100500007894089580910401089546E050E06DEAE2
:1005100072E08EE091E00C945A05809104018823EA
:1005200091F18FB780930201F89481E08093E90004
:100530009091E4009E5C8091E80085FD22C080914E
:1005400002018FBF809104018823E9F08091E400CB
:100550008917C9F021E00BC0809102018FBF809103
:100560000401882381F08091E400891761F08FB73E
:1005700080930201F8942093E9008091E80085FFC0
:10058000EBCF80E008958FEF0895EEE0F1E08191E8
:100590008093F10081E0E431F807C9F78AE38093A2
:1005A000E800809102018FBF08951F920F920FB64D
:1005B0000F9211248F938091E1001092E10083FF4C
:1005C0000FC01092E90081E08093EB001092EC00E4
:1005D00082E38093ED0088E08093F00010920401A4
:1005E0008F910F900FBE0F901F9018951F920F9232
:1005F0000FB60F9211242F933F934F935F936F93F6
:100600007F938F939F93AF93BF93CF93EF93FF937A
:100610001092E9008091E80083FF3EC0E091F10074
:100620006091F1002091F1008091F10030E0382BD1
:100630008091F1004091F10090E0DC01B42BAD011C
:100640007091F100C091F10082EF8093E800663074
:10065000B1F0653009F4BBC0693099F1683009F434
:1006600059C061115AC08091E80080FFFCCF109200
:10067000F1001092F1008EEF8093E80010C067E067
:1006800083EB92E0FC01A591B4912A173B0709F492
:100690005CC007966150B1F781E28093EB00FF9157
:1006A000EF91CF91BF91AF919F918F917F916F917A
:1006B0005F914F913F912F910F900FBE0F901F9020
:1006C0001895E1112AC0209304018EEF8093E80071
:1006D00081E02AEC33E08093E900A9014F5F5F4F8E
:1006E000F90194919093EB00992309F4C4C0FA01A5
:1006F00044914093EC003196E4912D5F3F4FE0939D
:10070000ED008F5F853039F78EE18093EA0010921B
:10071000EA00C5CFE03809F465C0452B09F0BCCF2D
:10072000E13A09F47BC0E13209F0B6CF693009F44F
:1007300065C06A3009F4A1C06B3009F0ADCF2093D9
:1007400000018EEF8093E800AACFFC013296A591BC
:10075000B4914A175B0709F09CCFFC013496459190
:100760005491FC0136962491872F90E09C2B8F3F6B
:10077000910511F008F04FC0821708F44AC06EEFDF
:100780008091E800982F9570D9F382FD88CF322FA1
:100790002134C0F030E4FA01832F94919093F1005A
:1007A000815031968111F9CF8FEF830F90E0019640
:1007B000480F591F231B6093E8002111E1CF30340B
:1007C000F9F26DCF2111E7CF6093E80068CF8EEF8B
:1007D0008093E8008091E80080FFFCCF20682093A0
:1007E000E3005DCF8091E80080FFFCCF80910401A1
:1007F0008093F1008EEF8093E80051CF8091E80064
:1008000082FFFCCF8BEF8093E8008EEF8093E800AF
:1008100046CF282FB4CF8FEF90E0AECF613089F074
:100820006230E9F0633009F037CF8091E80080FF53
:10083000FCCF809100018093F1008EEF8093E8005F
:100840002ECF8091E80080FFFCCFEEE0F1E08191B7
:100850008093F10081E0E431F807C9F772CF80910D
:10086000E80080FFFCCF809103018093F1008EEFC0
:100870008093E80014CF9A0144CF309303018EEFA8
:100880008093E8000CCF80E88093610010926100B3
:100890003F9A47980E9485028FE39CE90197F1F700
:1008A00000C000000E946B020E9482028823E1F3D4
:1008B00010920D0184E480937C008EE880937A008E
:1008C00010927B0080917A00806480937A001AB83D
:1008D0001BB884B18F7084B985B18F7085B9479A80
:1008E000D8E082E0C82E96E0E92E04E023E0D22E84
:1008F00035E0F32EC1E017E02BC010920F011E99D6
:100900005FC010930F0189B181708C27499931C064
:1009100092E0892B4A9931C094E0892B4B9931C0E0
:1009200098E0892B4C9931C090E1892B4D9931C0C9
:1009300090E2892B4E9931C090E4892B4F9931C0B8
:1009400090E8892B80930E010E948D02882389F103
:10095000D0930F011C9BD1CF1D9937C000930F017D
:100960001E9938C0F0920F0189B181708C27499B84
:10097000CFCF90E0892B4A9BCFCF90E0892B4B9B28
:10098000CFCF90E0892B4C9BCFCF90E0892B4D9B14
:10099000CFCF90E0892B4E9BCFCF90E0892B4F9B00
:1009A000CFCF90E0892B80930E010E948D028111A0
:1009B000CFCF80910D018430B9F00E94C5029ACF4B
:1009C0001F99A1CFC0930F019ECF1E9908C0E0923E
:1009D0000F0199CF1F9997CFD0920F0194CF1F99F4
:1009E00092CFC0920F018FCFE0910501F0910601E7
:1009F000E11592E0F90708F445C0EF31F24008F440
:100A000053C0EFE7E0931001E0910701F091080176
:100A1000E11592E0F90708F441C0EF31F24008F423
:100A200041C0EFE7E0931101E0910901F0910A0163
:100A3000E11592E0F90770F1EF31F24008F438C0A7
:100A4000EFE7E0931201E0910B01F0910C01E11549
:100A500092E0F907D8F0EF31F24040F1EFE7E09390
:100A6000130110920D0180917C008C7F80937C009B
:100A700095E39A95F1F7000080917A008064809365
:100A80007A009BCFE455FF4FE491BCCFE455FF4F74
:100A9000E491E5CFE455FF4FE491D3CFE455FF4F08
:100AA000E491C0CFEFEFBECFEFEFACCFEFEFD7CFFA
:100AB000EFEFC7CFFB01DC0102C005900D92415062
:0A0AC0005040D8F70895F894FFCFD6
:020ACA00010029
:00000001FF
